:020000040800F2
:1000000058080020F10600084D0700084D070008B9
:100010004D0700084D0700084D07000800000000CC
:100020000000000000000000000000004D07000874
:100030004D070008000000004D070008CD0C000827
:100040004D0700084D0700084D0700084D07000840
:100050004D0700084D0700084D0700084D07000830
:100060004D0700084D0700084D0700084D07000820
:100070004D0700084D0700084D0700084D07000810
:100080004D0700084D0700084D0700084D07000800
:100090004D0700084D0700084D0700084D070008F0
:1000A0004D0700084D0700084D0700084D070008E0
:1000B0004D0700084D0700084D0700084D070008D0
:1000C0004D0700084D0700084D0700084D070008C0
:1000D0004D0700084D070008510200084D070008B1
:1000E0004D0700084D0700084D0700084D070008A0
:1000F0004D0700084D0700084D0700084D07000890
:100100004D0700084D0700084D0700084D0700087F
:100110004D0700084D0700084D0700084D0700086F
:100120004D0700084D0700084D0700084D0700085F
:100130004D0700084D0700084D0700084D0700084F
:100140004D0700084D0700084D0700084D0700083F
:100150004D0700084D0700084D0700084D0700082F
:100160004D0700084D0700084D0700084D0700081F
:100170004D0700084D0700084D0700084D0700080F
:100180004D0700084D07000880B588B000AF012179
:10019000012000F04FFC01214FF4003000F068FC1A
:1001A0000C237B6102237B7602233B760023BB7604
:1001B0000023FB7607F114031946234800F0D2FD13
:1001C00007220321204800F08FFE072202211E484B
:1001D00000F08AFE01214FF4003000F049FC1B487A
:1001E00000F092F84FF416537B6000233B8100230C
:1001F0007B810023BB8100233B820C23FB813B1DC1
:100200001946124800F0EAF80121104800F0A0F960
:10021000012240F225510D4800F0C8F926233B7712
:1002200000237B770023BB770123FB7707F11C03B7
:10023000184600F049FF0121044800F089F900BF89
:100240002037BD4680BD00BF000002400044004092
:1002500080B500AF40F22551214800F0EEF9034689
:10026000002B06D01E4800F092F90346DAB21D4B6F
:100270001A701D4B1B78532B07D11A4B1A781B4B46
:100280001A70194B00221A7027E0174B1B784C2B61
:1002900007D1144B1A78164B1A70134B00221A70A0
:1002A0001BE0114B1B78522B07D10E4B1A78114BC8
:1002B0001A700D4B00221A700FE00B4B1B78422B6B
:1002C00007D1084B1A780C4B1A70074B00221A7092
:1002D00003E0044B1A78044B1A7000BF80BD00BFC6
:1002E000004400404E0000204D000020240000206B
:1002F00025000020260000202700002080B500AF48
:10030000FFF742FF00BF80BD80B582B000AF7860CC
:100310007B682C4A934208D10121102000F0E4FBB5
:100320000021102000F0E0FB47E07B68264A934262
:100330000AD101214FF4003000F0B8FB00214FF446
:10034000003000F0B3FB38E07B68204A93420AD1CA
:1003500001214FF4802000F0A9FB00214FF4802000
:1003600000F0A4FB29E07B68194A93420AD10121DD
:100370004FF4002000F09AFB00214FF4002000F021
:1003800095FB1AE07B68134A93420AD101214FF48E
:10039000801000F08BFB00214FF4801000F086FBF2
:1003A0000BE07B680C4A934207D10121202000F02A
:1003B0009BFB0021202000F097FB00BF0837BD46C3
:1003C00080BD00BF001001400044004000480040D4
:1003D000004C0040005000400014014080B58AB03D
:1003E00000AF7860396000237B6200233B6200230A
:1003F000FB610023BB617B681B8A9BB27B627B6ACB
:1004000023F440537B623B68DB881A467B6A1343C4
:100410007B627B6A9AB27B681A827B689B899BB2FB
:100420007B627B6A23F4B05323F00C037B623B684E
:100430009A883B681B8913439AB23B685B891343D4
:100440009BB21A467B6A13437B627B6A9AB27B68D3
:100450009A817B689B8A9BB27B627B6A23F44073A0
:100460007B623B689B891A467B6A13437B627B6A8B
:100470009AB27B689A8207F10803184600F032FAB4
:100480007B68304A934203D07B682F4A934202D163
:100490007B693B6201E03B693B627B689B899BB265
:1004A0001BB2002B0CDA3A6A13469B0013449A00E5
:1004B0001A443B681B685B00B2FBF3F3FB610BE083
:1004C0003A6A13469B0013449A001A443B681B681F
:1004D0009B00B2FBF3F3FB61FB691C4AA2FB032305
:1004E0005B091B017B627B6A1B09642202FB03F32D
:1004F000FA69D31ABB617B689B899BB21BB2002B44
:100500000CDABB69DB003233104AA2FB03235B0920
:1005100003F007037A6A13437B620BE0BB691B019C
:1005200032330A4AA2FB03235B0903F00F037A6A02
:1005300013437B627B6A9AB27B681A8100BF2837BB
:10054000BD4680BD00100140001401401F85EB51E5
:1005500080B483B000AF78600B46FB70FB78002B53
:1005600008D07B689B899BB243F400539AB27B68A6
:100570009A8107E07B689B899BB223F400539AB26F
:100580007B689A8100BF0C37BD4680BC704780B441
:1005900083B000AF78607B689B889BB2C3F308038D
:1005A0009BB218460C37BD4680BC704780B487B0FC
:1005B00000AF78600B467B8013467B7000233B6165
:1005C0000023FB600023BB6000237B617B687B61B1
:1005D0007B88DBB25B09DBB23B617B8803F01F03E6
:1005E000FB600122FB6802FA03F3BB603B69012B4D
:1005F00003D17B690C337B6109E03B69022B03D19A
:100600007B6910337B6102E07B6914337B617B780B
:10061000002B06D07B697A691168BA680A431A60B0
:1006200006E07B697A691168BA68D2430A401A60A9
:1006300000BF1C37BD4680BC704780B487B000AF98
:1006400078600B467B800023FB6000237B610023E6
:10065000BB600023FB747B88DBB25B09DBB2BB6051
:100660007B8803F01F037B6101227B6902FA03F39D
:100670007B61BB68012B07D17B689B899BB21A46C3
:100680007B6913407B6111E0BB68022B07D17B685B
:100690001B8A9BB21A467B6913407B6106E07B682C
:1006A0009B8A9BB21A467B6913407B617B881B0A3D
:1006B0009BB2FB600122FB6802FA03F3FB607B68DC
:1006C0001B889BB21A46FB681340FB607B69002BBA
:1006D00005D0FB68002B02D00123FB7401E000234E
:1006E000FB74FB7C18461C37BD4680BC704700007D
:1006F00080B582B000AF104B7B60104B3B6007E0D1
:100700003B681A1D3A607A68111D796012681A6098
:100710003B680B4A9342F3D30A480B494FF000025F
:100720008842B8BF40F8042BFADB00F08DF800BF18
:100730000837BD4680BD00BFB81200080000002089
:1007400024000020240000205800002080B400AFC6
:10075000FEE7000080B500AF234B1B68002B1DD1C6
:1007600000F032FD214B1B68002B03D0204B1B688F
:10077000002B36D11F4B1B68002B03D01D4B1B6871
:10078000022B03D1184B01221A602AE0194B1B6877
:10079000012B26D1144B02221A6022E0124B1B6857
:1007A000012B0DD100F028FD4FF4FA7000F076FA1D
:1007B0000D4B1B680F4A13600B4B00221A6010E0B0
:1007C000094B1B68022B0CD100F02EFD4FF4FA7080
:1007D00000F064FA044B1B68064A1360024B0022C7
:1007E0001A6000BF80BD00BF340000205000002010
:1007F000540000203800002080B500AF01E000F078
:1008000043FD0D4B1B78002BF9D101E000F0F4FC07
:100810000A4B1B78002BF9D101E000F005FD084BD5
:100820001B78002BF9D101E000F016FD054B1B7879
:10083000002BF9D100BF80BD24000020250000203E
:10084000260000202700002080B500AF00F094FBB8
:1008500000F060FA00F09AFCFFF750FD00F09CF900
:1008600000F0B6F9FFF776FFFFF7C6FFF8E70000E4
:1008700080B483B000AF0346FB71054B00221A70B1
:10088000034AFB79137000BF0C37BD4680BC70472C
:100890000238024080B582B000AF00233B600023E5
:1008A000FB710023BB71312000F03CF90346BB71A2
:1008B0003B6801333B603B68B3F5A06F02D0BB7966
:1008C000002BF0D0312000F02DF90346002B02D090
:1008D0000123FB7101E00023FB71FB791846083707
:1008E000BD4680BD80B489B000AF78600023BB6195
:1008F00000237B610023FB6102233B610023FB603B
:100900000223BB60474B9B6803F00C03BB61BB69D0
:10091000042B07D0082B09D0002B3DD17B68424A1D
:100920001A603DE07B68414A1A6039E03D4B5B68E4
:100930009B0D03F00103FB603A4B5B6803F03F0340
:10094000BB60FB68002B0CD0384ABB68B2FBF3F3EA
:10095000344A52689209C2F3080202FB03F3FB61B6
:100960000BE0314ABB68B2FBF3F32E4A526892099E
:10097000C2F3080202FB03F3FB612A4B5B681B0C0A
:1009800003F0030301335B003B61FA693B69B2FB8F
:10099000F3F27B681A6003E07B68234A1A6000BFA9
:1009A000204B9B6803F0F003BB61BB691B09BB6173
:1009B0001F4ABB6913441B78DBB27B617B681A68F2
:1009C0007B69DA407B685A60164B9B6803F4E053FE
:1009D000BB61BB699B0ABB61154ABB6913441B78A9
:1009E000DBB27B617B685A687B69DA407B689A601E
:1009F0000C4B9B6803F46043BB61BB695B0BBB6141
:100A00000B4ABB6913441B78DBB27B617B685A6875
:100A10007B69DA407B68DA6000BF2437BD4680BC62
:100A2000704700BF003802400024F40040787D0188
:100A30000000002080B483B000AF78600B46FB70EC
:100A4000FB78002B06D00949084B1A6B7B681343CF
:100A50000B6306E00549054B1A6B7B68DB431340CB
:100A60000B6300BF0C37BD4680BC704700380240A6
:100A700080B483B000AF78600B46FB70FB78002B2E
:100A800006D00949084B1A6C7B6813430B6406E0D7
:100A90000549054B1A6C7B68DB4313400B6400BFB0
:100AA0000C37BD4680BC70470038024080B483B02C
:100AB00000AF78600B46FB70FB78002B06D009492D
:100AC000084B1A6A7B6813430B6206E00549054B25
:100AD0001A6A7B68DB4313400B6200BF0C37BD46CC
:100AE00080BC70470038024080B483B000AF7860AB
:100AF0000B46FB70FB78002B06D00949084B5A6A5D
:100B00007B6813434B6206E00549054B5A6A7B68D4
:100B1000DB4313404B6200BF0C37BD4680BC7047BF
:100B20000038024080B487B000AF0346FB71002359
:100B3000FB6000237B610023FB74FB795B09DBB264
:100B4000FB60FB68012B03D1124B1B687B6109E042
:100B5000FB68022B03D10F4B1B6F7B6102E00D4B37
:100B60005B6F7B61FB7903F01F03FB607A69FB68B5
:100B700022FA03F303F00103002B02D00123FB74DC
:100B800001E00023FB74FB7C18461C37BD4680BC8B
:100B9000704700BF0038024080B582B000AF01212D
:100BA0000220FFF747FFC0233B6002237B71002335
:100BB0003B710023BB710223FB713B46194603487E
:100BC00000F0D0F800BF0837BD4680BD00040240E9
:100BD00080B500AF4021084800F051F903461A469D
:100BE000064B1A608021044800F049F903461A4672
:100BF000034B1A6000BF80BD00040240500000207B
:100C00005400002080B483B000AF03463960FB710C
:100C100097F90730002B0BDA0D49FB7903F00F032E
:100C2000043B3A68D2B21201D2B20B441A7609E000
:100C3000084997F907303A68D2B21201D2B20B4490
:100C400083F8002300BF0C37BD4680BC704700BF4F
:100C500000ED00E000E100E080B582B000AF786018
:100C60007B68B3F1807F01D3012311E00A4A7B68DE
:100C700023F07F43013B53600F214FF0FF30FFF71C
:100C8000C1FF054B00229A60034B07221A60002324
:100C900018460837BD4680BD10E000E080B483B040
:100CA00000AF78607B684FF47A7202FB03F3064A68
:100CB000136000BF044B1B68002BFBD100BF0C3737
:100CC000BD4680BC704700BF4000002080B400AF2C
:100CD0000D4B1B6801330C4A13600C4B1B68002B37
:100CE00004D00A4B1B68013B084A1360084B1B6881
:100CF000002B04D0064B1B68013B054A136000BF64
:100D0000BD4680BC704700BF440000204800002062
:100D10004000002080B500AF0F4B1B78002B19D18D
:100D20000120FFF7A5FD00BFFFF7B4FD0346002B30
:100D3000FAD00A4B1B680A4AA2FB03239B0C1846F5
:100D4000FFF78AFF0346002B00D0FEE7024B01228B
:100D50001A7000E000BF80BD4C0000201000002091
:100D600083DE1B4380B487B000AF78603960002316
:100D70007B6100233B610023FB6000237B6176E005
:100D800001227B6902FA03F33B613B681A683B6905
:100D90001340FB60FA683B699A4265D17B681A6828
:100DA0007B695B00032101FA03F3DB431A407B6894
:100DB0001A607B681A683B681B7919467B695B007F
:100DC00001FA03F31A437B681A603B681B79012B15
:100DD00003D03B681B79022B2ED17B689A687B6914
:100DE0005B00032101FA03F3DB431A407B689A603E
:100DF0007B689A683B685B7919467B695B0001FAFE
:100E000003F31A437B689A607B685A687B699BB2DC
:100E1000194601238B40DB431A407B685A607B688C
:100E20005B683A68927911467A6992B201FA02F2E5
:100E300092B21A437B685A607B68DA687B699BB21E
:100E40005B00032101FA03F3DB431A407B68DA609D
:100E50007B68DA683B68DB7919467B695B0001FADD
:100E600003F31A437B68DA607B6901337B617B693A
:100E70000F2B85D900BF1C37BD4680BC704780B49E
:100E800085B000AF78600B467B800023FB737B68E6
:100E90001A697B881340002B02D00123FB7301E009
:100EA0000023FB73FB7B18461437BD4680BC70479C
:100EB00080B483B000AF78600B467B807B687A8813
:100EC0001A8300BF0C37BD4680BC704780B483B026
:100ED00000AF78600B467B807B687A885A8300BFBE
:100EE0000C37BD4680BC704780B485B000AF7860D9
:100EF0000B467B8013467B700023FB600023BB60A6
:100F00007A787B8803F007039B0002FA03F3FB6007
:100F10007B88DB089BB218467B88DB089BB21A46AD
:100F20007B68083253F822207B8803F007039B007C
:100F30000F2101FA03F3DB4302EA03017B6800F1AE
:100F4000080243F822107B88DB089BB21A467B68B4
:100F5000083253F82220FB681343BB607B88DB0810
:100F60009BB21A467B680832B96843F8221000BF6A
:100F70001437BD4680BC704780B500AF124A124B93
:100F80001B6843F0010313600F4B00229A600E4A66
:100F90000D4B1B6823F0847323F4803313600A4BDA
:100FA0000A4A5A60084A084B1B6823F480231360DE
:100FB000054B0022DA6000F00DF8054B4FF000629F
:100FC0009A6000BF80BD00BF00380240103000248E
:100FD00000ED00E080B483B000AF00237B6000230D
:100FE0003B60354A344B1B6843F480331360324B0B
:100FF0001B6803F400333B607B6801337B603B6814
:10100000002B03D17B68B3F5A06FF0D12A4B1B688E
:1010100003F40033002B02D001233B6001E00023E6
:101020003B603B68012B42D1234A234B1B6C43F0AE
:1010300080531364214A214B1B6843F4804313609F
:101040001D4A1D4B9B6893601B4A1B4B9B6843F4D6
:1010500000439360184A184B9B6843F4A053936075
:10106000154B174A5A60144A134B1B6843F08073A0
:10107000136000BF104B1B6803F00073002BF9D006
:10108000104B40F205621A600B4A0B4B9B6823F031
:1010900003039360084A084B9B6843F00203936084
:1010A00000BF054B9B6803F00C03082BF9D100BF70
:1010B0000C37BD4680BC70470038024000700040CD
:1010C00019544007003C024080B485B000AF7860FE
:1010D0000023FB730023BB730F237B737B68DB78D8
:1010E000002B39D0274BDB68DB431B0ADBB203F054
:1010F0000703FB73FB7BC3F10403BB737A7BFB7BAE
:1011000042FA03F37B737B685B781A46BB7B02FA77
:1011100003F3FB737B689A787B7B1340DAB2FB7B2B
:101120001343FB73FB7B1B01FB73174A7B681B7824
:101130001344FA7B83F80023134A7B681B785B090E
:10114000DBB218467B681B7803F01F03012101FA0C
:1011500003F342F820300FE00B497B681B785B09F2
:10116000DBB218467B681B7803F01F0301229A400C
:1011700000F1200341F8232000BF1437BD4680BC96
:10118000704700BF00ED00E000E100E080B582B0F4
:1011900000AF01210220FFF74DFC40F203333B601A
:1011A00002237B7101233B710023BB710023FB7180
:1011B0003B4619460348FFF7D5FD00BF0837BD463B
:1011C00080BD00BF0004024080B500AF0221094885
:1011D000FFF76EFE01210748FFF778FE4FF400711C
:1011E0000448FFF765FE4FF480710248FFF76EFE7A
:1011F00000BF80BD0004024080B500AF0221094855
:10120000FFF756FE01210748FFF760FE4FF400711B
:101210000448FFF75BFE4FF480710248FFF756FE6B
:1012200000BF80BD0004024080B500AF0221094824
:10123000FFF74CFE01210748FFF748FE4FF400710D
:101240000448FFF735FE4FF480710248FFF73EFE79
:1012500000BF80BD0004024080B500AF02210948F4
:10126000FFF734FE01210748FFF722FE4FF400711B
:101270000448FFF72BFE4FF480710248FFF718FE79
:1012800000BF80BD0004024080B500AF02210948C4
:10129000FFF71CFE01210748FFF718FE4FF400710D
:1012A0000448FFF713FE4FF480710248FFF70EFE6B
:0812B00000BF80BD00040240F4
:1012B80000000000010203040102030406070809F4
:1012C800007A030A00000000000000000102030485
:0412D80006070809F4
:0400000508000000EF
:00000001FF
